{"abi":[{"type":"constructor","inputs":[{"name":"name","type":"string","internalType":"string"},{"name":"symbol","type":"string","internalType":"string"},{"name":"_flashLoanProvider","type":"address","internalType":"address"}],"stateMutability":"nonpayable"},{"type":"function","name":"BADGE_DESCRIPTION","inputs":[],"outputs":[{"name":"","type":"string","internalType":"string"}],"stateMutability":"view"},{"type":"function","name":"approve","inputs":[{"name":"","type":"address","internalType":"address"},{"name":"","type":"uint256","internalType":"uint256"}],"outputs":[],"stateMutability":"nonpayable"},{"type":"function","name":"balanceOf","inputs":[{"name":"owner","type":"address","internalType":"address"}],"outputs":[{"name":"","type":"uint256","internalType":"uint256"}],"stateMutability":"view"},{"type":"function","name":"flashLoanProvider","inputs":[],"outputs":[{"name":"","type":"address","internalType":"address"}],"stateMutability":"view"},{"type":"function","name":"getApproved","inputs":[{"name":"tokenId","type":"uint256","internalType":"uint256"}],"outputs":[{"name":"","type":"address","internalType":"address"}],"stateMutability":"view"},{"type":"function","name":"getUserTokenId","inputs":[{"name":"user","type":"address","internalType":"address"}],"outputs":[{"name":"tokenId","type":"uint256","internalType":"uint256"}],"stateMutability":"view"},{"type":"function","name":"hasBadge","inputs":[{"name":"","type":"address","internalType":"address"}],"outputs":[{"name":"","type":"bool","internalType":"bool"}],"stateMutability":"view"},{"type":"function","name":"hasEarnedBadge","inputs":[{"name":"user","type":"address","internalType":"address"}],"outputs":[{"name":"","type":"bool","internalType":"bool"}],"stateMutability":"view"},{"type":"function","name":"isApprovedForAll","inputs":[{"name":"owner","type":"address","internalType":"address"},{"name":"operator","type":"address","internalType":"address"}],"outputs":[{"name":"","type":"bool","internalType":"bool"}],"stateMutability":"view"},{"type":"function","name":"mintBadge","inputs":[{"name":"to","type":"address","internalType":"address"}],"outputs":[{"name":"tokenId","type":"uint256","internalType":"uint256"}],"stateMutability":"nonpayable"},{"type":"function","name":"name","inputs":[],"outputs":[{"name":"","type":"string","internalType":"string"}],"stateMutability":"view"},{"type":"function","name":"owner","inputs":[],"outputs":[{"name":"","type":"address","internalType":"address"}],"stateMutability":"view"},{"type":"function","name":"ownerOf","inputs":[{"name":"tokenId","type":"uint256","internalType":"uint256"}],"outputs":[{"name":"","type":"address","internalType":"address"}],"stateMutability":"view"},{"type":"function","name":"renounceOwnership","inputs":[],"outputs":[],"stateMutability":"nonpayable"},{"type":"function","name":"safeTransferFrom","inputs":[{"name":"from","type":"address","internalType":"address"},{"name":"to","type":"address","internalType":"address"},{"name":"tokenId","type":"uint256","internalType":"uint256"}],"outputs":[],"stateMutability":"nonpayable"},{"type":"function","name":"safeTransferFrom","inputs":[{"name":"from","type":"address","internalType":"address"},{"name":"to","type":"address","internalType":"address"},{"name":"tokenId","type":"uint256","internalType":"uint256"},{"name":"data","type":"bytes","internalType":"bytes"}],"outputs":[],"stateMutability":"nonpayable"},{"type":"function","name":"setApprovalForAll","inputs":[{"name":"","type":"address","internalType":"address"},{"name":"","type":"bool","internalType":"bool"}],"outputs":[],"stateMutability":"nonpayable"},{"type":"function","name":"setBaseURI","inputs":[{"name":"baseURI","type":"string","internalType":"string"}],"outputs":[],"stateMutability":"nonpayable"},{"type":"function","name":"setFlashLoanProvider","inputs":[{"name":"_flashLoanProvider","type":"address","internalType":"address"}],"outputs":[],"stateMutability":"nonpayable"},{"type":"function","name":"supportsInterface","inputs":[{"name":"interfaceId","type":"bytes4","internalType":"bytes4"}],"outputs":[{"name":"","type":"bool","internalType":"bool"}],"stateMutability":"view"},{"type":"function","name":"symbol","inputs":[],"outputs":[{"name":"","type":"string","internalType":"string"}],"stateMutability":"view"},{"type":"function","name":"tokenIdToUser","inputs":[{"name":"","type":"uint256","internalType":"uint256"}],"outputs":[{"name":"","type":"address","internalType":"address"}],"stateMutability":"view"},{"type":"function","name":"tokenURI","inputs":[{"name":"tokenId","type":"uint256","internalType":"uint256"}],"outputs":[{"name":"","type":"string","internalType":"string"}],"stateMutability":"view"},{"type":"function","name":"totalBadgesMinted","inputs":[],"outputs":[{"name":"","type":"uint256","internalType":"uint256"}],"stateMutability":"view"},{"type":"function","name":"transferFrom","inputs":[{"name":"from","type":"address","internalType":"address"},{"name":"to","type":"address","internalType":"address"},{"name":"tokenId","type":"uint256","internalType":"uint256"}],"outputs":[],"stateMutability":"nonpayable"},{"type":"function","name":"transferOwnership","inputs":[{"name":"newOwner","type":"address","internalType":"address"}],"outputs":[],"stateMutability":"nonpayable"},{"type":"function","name":"userTokenId","inputs":[{"name":"","type":"address","internalType":"address"}],"outputs":[{"name":"","type":"uint256","internalType":"uint256"}],"stateMutability":"view"},{"type":"event","name":"Approval","inputs":[{"name":"owner","type":"address","indexed":true,"internalType":"address"},{"name":"approved","type":"address","indexed":true,"internalType":"address"},{"name":"tokenId","type":"uint256","indexed":true,"internalType":"uint256"}],"anonymous":false},{"type":"event","name":"ApprovalForAll","inputs":[{"name":"owner","type":"address","indexed":true,"internalType":"address"},{"name":"operator","type":"address","indexed":true,"internalType":"address"},{"name":"approved","type":"bool","indexed":false,"internalType":"bool"}],"anonymous":false},{"type":"event","name":"BadgeMinted","inputs":[{"name":"recipient","type":"address","indexed":true,"internalType":"address"},{"name":"tokenId","type":"uint256","indexed":true,"internalType":"uint256"}],"anonymous":false},{"type":"event","name":"OwnershipTransferred","inputs":[{"name":"previousOwner","type":"address","indexed":true,"internalType":"address"},{"name":"newOwner","type":"address","indexed":true,"internalType":"address"}],"anonymous":false},{"type":"event","name":"Transfer","inputs":[{"name":"from","type":"address","indexed":true,"internalType":"address"},{"name":"to","type":"address","indexed":true,"internalType":"address"},{"name":"tokenId","type":"uint256","indexed":true,"internalType":"uint256"}],"anonymous":false},{"type":"error","name":"ERC721IncorrectOwner","inputs":[{"name":"sender","type":"address","internalType":"address"},{"name":"tokenId","type":"uint256","internalType":"uint256"},{"name":"owner","type":"address","internalType":"address"}]},{"type":"error","name":"ERC721InsufficientApproval","inputs":[{"name":"operator","type":"address","internalType":"address"},{"name":"tokenId","type":"uint256","internalType":"uint256"}]},{"type":"error","name":"ERC721InvalidApprover","inputs":[{"name":"approver","type":"address","internalType":"address"}]},{"type":"error","name":"ERC721InvalidOperator","inputs":[{"name":"operator","type":"address","internalType":"address"}]},{"type":"error","name":"ERC721InvalidOwner","inputs":[{"name":"owner","type":"address","internalType":"address"}]},{"type":"error","name":"ERC721InvalidReceiver","inputs":[{"name":"receiver","type":"address","internalType":"address"}]},{"type":"error","name":"ERC721InvalidSender","inputs":[{"name":"sender","type":"address","internalType":"address"}]},{"type":"error","name":"ERC721NonexistentToken","inputs":[{"name":"tokenId","type":"uint256","internalType":"uint256"}]},{"type":"error","name":"OwnableInvalidOwner","inputs":[{"name":"owner","type":"address","internalType":"address"}]},{"type":"error","name":"OwnableUnauthorizedAccount","inputs":[{"name":"account","type":"address","internalType":"address"}]},{"type":"error","name":"StringsInsufficientHexLength","inputs":[{"name":"value","type":"uint256","internalType":"uint256"},{"name":"length","type":"uint256","internalType":"uint256"}]}],"bytecode":{"object":"0x608060405234801561001057600080fd5b50604051611f69380380611f6983398101604081905261002f916101da565b338383600061003e83826102ee565b50600161004b82826102ee565b5050506001600160a01b03811661007c57604051631e4fbdf760e01b81526000600482015260240160405180910390fd5b610085816100cf565b50600b80546001600160a01b0319166001600160a01b0383161790556040805160608101909152602e808252611f3b6020830139600c906100c690826102ee565b505050506103ac565b600680546001600160a01b038381166001600160a01b0319831681179093556040519116919082907f8be0079c531659141344cd1fd0a4f28419497f9722a3daafe3b4186f6b6457e090600090a35050565b634e487b7160e01b600052604160045260246000fd5b600082601f83011261014857600080fd5b81516001600160401b0381111561016157610161610121565b604051601f8201601f19908116603f011681016001600160401b038111828210171561018f5761018f610121565b6040528181528382016020018510156101a757600080fd5b60005b828110156101c6576020818601810151838301820152016101aa565b506000918101602001919091529392505050565b6000806000606084860312156101ef57600080fd5b83516001600160401b0381111561020557600080fd5b61021186828701610137565b602086015190945090506001600160401b0381111561022f57600080fd5b61023b86828701610137565b604086015190935090506001600160a01b038116811461025a57600080fd5b809150509250925092565b600181811c9082168061027957607f821691505b60208210810361029957634e487b7160e01b600052602260045260246000fd5b50919050565b601f8211156102e957806000526020600020601f840160051c810160208510156102c65750805b601f840160051c820191505b818110156102e657600081556001016102d2565b50505b505050565b81516001600160401b0381111561030757610307610121565b61031b816103158454610265565b8461029f565b6020601f82116001811461034f57600083156103375750848201515b600019600385901b1c1916600184901b1784556102e6565b600084815260208120601f198516915b8281101561037f578785015182556020948501946001909201910161035f565b508482101561039d5786840151600019600387901b60f8161c191681555b50505050600190811b01905550565b611b80806103bb6000396000f3fe608060405234801561001057600080fd5b50600436106101a95760003560e01c8063715018a6116100f9578063acdcda6b11610097578063e985e9c511610071578063e985e9c5146103a5578063f2fde38b146103b8578063fd764f22146103cb578063fefd4e4f146103f457600080fd5b8063acdcda6b14610377578063b88d4fde1461037f578063c87b56dd1461039257600080fd5b806395d89b41116100d357806395d89b41146103465780639b7852781461034e578063a22cb46514610356578063aa9cb0a51461036457600080fd5b8063715018a61461030d578063715ca542146103155780638da5cb5b1461033557600080fd5b806342842e0e116101665780635e50864f116101405780635e50864f146102b15780636352211e146102d4578063639af6d0146102e757806370a08231146102fa57600080fd5b806342842e0e1461026a5780634a36f6e41461027d57806355f804b31461029e57600080fd5b806301ffc9a7146101ae57806306fdde03146101d6578063081812fc146101eb578063095ea7b31461021657806323b872dd1461022b57806328280ac51461023e575b600080fd5b6101c16101bc36600461134e565b610407565b60405190151581526020015b60405180910390f35b6101de610459565b6040516101cd91906113c2565b6101fe6101f93660046113d5565b6104eb565b6040516001600160a01b0390911681526020016101cd565b61022961022436600461140a565b610514565b005b610229610239366004611434565b610535565b6101c161024c366004611471565b6001600160a01b03166000908152600a602052604090205460ff1690565b610229610278366004611434565b6105c0565b61029061028b366004611471565b6105e0565b6040519081526020016101cd565b6102296102ac36600461151c565b6107a2565b6101c16102bf366004611471565b600a6020526000908152604090205460ff1681565b6101fe6102e23660046113d5565b6107ba565b600b546101fe906001600160a01b031681565b610290610308366004611471565b6107c5565b61022961080d565b610290610323366004611471565b60086020526000908152604090205481565b6006546001600160a01b03166101fe565b6101de610821565b6101de610830565b610229610224366004611565565b610229610372366004611471565b61084c565b600754610290565b61022961038d3660046115a1565b6108cc565b6101de6103a03660046113d5565b6108e4565b6101c16103b336600461161d565b6109a0565b6102296103c6366004611471565b6109ce565b6101fe6103d93660046113d5565b6009602052600090815260409020546001600160a01b031681565b610290610402366004611471565b610a0c565b60006001600160e01b031982166380ac58cd60e01b148061043857506001600160e01b03198216635b5e139f60e01b145b8061045357506301ffc9a760e01b6001600160e01b03198316145b92915050565b60606000805461046890611650565b80601f016020809104026020016040519081016040528092919081815260200182805461049490611650565b80156104e15780601f106104b6576101008083540402835291602001916104e1565b820191906000526020600020905b8154815290600101906020018083116104c457829003601f168201915b5050505050905090565b60006104f682610a52565b506000828152600460205260409020546001600160a01b0316610453565b60405162461bcd60e51b815260040161052c9061168a565b60405180910390fd5b6001600160a01b03821661055f57604051633250574960e11b81526000600482015260240161052c565b600061056c838333610a8b565b9050836001600160a01b0316816001600160a01b0316146105ba576040516364283d7b60e01b81526001600160a01b038086166004830152602482018490528216604482015260640161052c565b50505050565b6105db838383604051806020016040528060008152506108cc565b505050565b600b546000906001600160a01b031633146106475760405162461bcd60e51b815260206004820152602160248201527f4f6e6c7920666c617368206c6f616e2070726f76696465722063616e206d696e6044820152601d60fa1b606482015260840161052c565b6001600160a01b03821661069d5760405162461bcd60e51b815260206004820152601b60248201527f43616e6e6f74206d696e7420746f207a65726f20616464726573730000000000604482015260640161052c565b6001600160a01b0382166000908152600a602052604090205460ff16156107065760405162461bcd60e51b815260206004820152601860248201527f5573657220616c72656164792068617320612062616467650000000000000000604482015260640161052c565b50600780549081906000610719836116e7565b91905055506107288282610ad5565b6001600160a01b03821660008181526008602090815260408083208590558483526009825280832080546001600160a01b03191685179055838352600a909152808220805460ff19166001179055518392917fc5e5b314108c1f776c2302351b8278910ddb812b122b2717b1bc973146145e9a91a3919050565b6107aa610aef565b600c6107b68282611747565b5050565b600061045382610a52565b60006001600160a01b0382166107f1576040516322718ad960e21b81526000600482015260240161052c565b506001600160a01b031660009081526003602052604090205490565b610815610aef565b61081f6000610b1c565b565b60606001805461046890611650565b6040518060a0016040528060648152602001611ae76064913981565b610854610aef565b6001600160a01b0381166108aa5760405162461bcd60e51b815260206004820152601860248201527f496e76616c69642070726f766964657220616464726573730000000000000000604482015260640161052c565b600b80546001600160a01b0319166001600160a01b0392909216919091179055565b6108d7848484610535565b6105ba3385858585610b6e565b6000818152600260205260409020546060906001600160a01b031661094b5760405162461bcd60e51b815260206004820152601f60248201527f55524920717565727920666f72206e6f6e6578697374656e7420746f6b656e00604482015260640161052c565b6000600c805461095a90611650565b90501161096f5761096a82610c99565b610453565b600c61097a83610d0a565b60405160200161098b929190611806565b60405160208183030381529060405292915050565b6001600160a01b03918216600090815260056020908152604080832093909416825291909152205460ff1690565b6109d6610aef565b6001600160a01b038116610a0057604051631e4fbdf760e01b81526000600482015260240161052c565b610a0981610b1c565b50565b6001600160a01b0381166000908152600a602052604081205460ff1615610a4957506001600160a01b031660009081526008602052604090205490565b50600019919050565b6000818152600260205260408120546001600160a01b03168061045357604051637e27328960e01b81526004810184905260240161052c565b6000828152600260205260408120546001600160a01b03168015610ac15760405162461bcd60e51b815260040161052c9061168a565b610acc858585610d9d565b95945050505050565b6107b6828260405180602001604052806000815250610e96565b6006546001600160a01b0316331461081f5760405163118cdaa760e01b815233600482015260240161052c565b600680546001600160a01b038381166001600160a01b0319831681179093556040519116919082907f8be0079c531659141344cd1fd0a4f28419497f9722a3daafe3b4186f6b6457e090600090a35050565b6001600160a01b0383163b15610c9257604051630a85bd0160e11b81526001600160a01b0384169063150b7a0290610bb090889088908790879060040161188c565b6020604051808303816000875af1925050508015610beb575060408051601f3d908101601f19168201909252610be8918101906118c9565b60015b610c54573d808015610c19576040519150601f19603f3d011682016040523d82523d6000602084013e610c1e565b606091505b508051600003610c4c57604051633250574960e11b81526001600160a01b038516600482015260240161052c565b805160208201fd5b6001600160e01b03198116630a85bd0160e11b14610c9057604051633250574960e11b81526001600160a01b038516600482015260240161052c565b505b5050505050565b60606000610ca6836107ba565b90506000610cb384610d0a565b6040518060a0016040528060648152602001611ae760649139610ce0846001600160a01b03166014610eae565b604051602001610cf2939291906118e6565b60408051601f19818403018152919052949350505050565b60606000610d178361102e565b600101905060008167ffffffffffffffff811115610d3757610d3761148c565b6040519080825280601f01601f191660200182016040528015610d61576020820181803683370190505b5090508181016020015b600019016f181899199a1a9b1b9c1cb0b131b232b360811b600a86061a8153600a8504945084610d6b57509392505050565b6000828152600260205260408120546001600160a01b0390811690831615610dca57610dca818486611106565b6001600160a01b03811615610e0857610de760008560008061116a565b6001600160a01b038116600090815260036020526040902080546000190190555b6001600160a01b03851615610e37576001600160a01b0385166000908152600360205260409020805460010190555b60008481526002602052604080822080546001600160a01b0319166001600160a01b0389811691821790925591518793918516917fddf252ad1be2c89b69c2b068fc378daa952ba7f163c4a11628f55a4df523b3ef91a4949350505050565b610ea08383611270565b6105db336000858585610b6e565b6060826000610ebe846002611a8f565b610ec9906002611aa6565b67ffffffffffffffff811115610ee157610ee161148c565b6040519080825280601f01601f191660200182016040528015610f0b576020820181803683370190505b509050600360fc1b81600081518110610f2657610f26611ab9565b60200101906001600160f81b031916908160001a905350600f60fb1b81600181518110610f5557610f55611ab9565b60200101906001600160f81b031916908160001a9053506000610f79856002611a8f565b610f84906001611aa6565b90505b6001811115610ffc576f181899199a1a9b1b9c1cb0b131b232b360811b83600f1660108110610fb857610fb8611ab9565b1a60f81b828281518110610fce57610fce611ab9565b60200101906001600160f81b031916908160001a90535060049290921c91610ff581611acf565b9050610f87565b5081156110265760405163e22e27eb60e01b8152600481018690526024810185905260440161052c565b949350505050565b60008072184f03e93ff9f4daa797ed6e38ed64bf6a1f0160401b831061106d5772184f03e93ff9f4daa797ed6e38ed64bf6a1f0160401b830492506040015b6d04ee2d6d415b85acef81000000008310611099576d04ee2d6d415b85acef8100000000830492506020015b662386f26fc1000083106110b757662386f26fc10000830492506010015b6305f5e10083106110cf576305f5e100830492506008015b61271083106110e357612710830492506004015b606483106110f5576064830492506002015b600a83106104535760010192915050565b6111118383836112d5565b6105db576001600160a01b03831661113f57604051637e27328960e01b81526004810182905260240161052c565b60405163177e802f60e01b81526001600160a01b03831660048201526024810182905260440161052c565b808061117e57506001600160a01b03821615155b1561124057600061118e84610a52565b90506001600160a01b038316158015906111ba5750826001600160a01b0316816001600160a01b031614155b80156111cd57506111cb81846109a0565b155b156111f65760405163a9fbf51f60e01b81526001600160a01b038416600482015260240161052c565b811561123e5783856001600160a01b0316826001600160a01b03167f8c5be1e5ebec7d5bd14f71427d1e84f3dd0314c0f7b2291e5b200ac8c7c3b92560405160405180910390a45b505b5050600090815260046020526040902080546001600160a01b0319166001600160a01b0392909216919091179055565b6001600160a01b03821661129a57604051633250574960e11b81526000600482015260240161052c565b60006112a883836000610a8b565b90506001600160a01b038116156105db576040516339e3563760e11b81526000600482015260240161052c565b60006001600160a01b038316158015906110265750826001600160a01b0316846001600160a01b0316148061130f575061130f84846109a0565b806110265750506000908152600460205260409020546001600160a01b03908116911614919050565b6001600160e01b031981168114610a0957600080fd5b60006020828403121561136057600080fd5b813561136b81611338565b9392505050565b60005b8381101561138d578181015183820152602001611375565b50506000910152565b600081518084526113ae816020860160208601611372565b601f01601f19169290920160200192915050565b60208152600061136b6020830184611396565b6000602082840312156113e757600080fd5b5035919050565b80356001600160a01b038116811461140557600080fd5b919050565b6000806040838503121561141d57600080fd5b611426836113ee565b946020939093013593505050565b60008060006060848603121561144957600080fd5b611452846113ee565b9250611460602085016113ee565b929592945050506040919091013590565b60006020828403121561148357600080fd5b61136b826113ee565b634e487b7160e01b600052604160045260246000fd5b60008067ffffffffffffffff8411156114bd576114bd61148c565b50604051601f19601f85018116603f0116810181811067ffffffffffffffff821117156114ec576114ec61148c565b60405283815290508082840185101561150457600080fd5b83836020830137600060208583010152509392505050565b60006020828403121561152e57600080fd5b813567ffffffffffffffff81111561154557600080fd5b8201601f8101841361155657600080fd5b611026848235602084016114a2565b6000806040838503121561157857600080fd5b611581836113ee565b91506020830135801515811461159657600080fd5b809150509250929050565b600080600080608085870312156115b757600080fd5b6115c0856113ee565b93506115ce602086016113ee565b925060408501359150606085013567ffffffffffffffff8111156115f157600080fd5b8501601f8101871361160257600080fd5b611611878235602084016114a2565b91505092959194509250565b6000806040838503121561163057600080fd5b611639836113ee565b9150611647602084016113ee565b90509250929050565b600181811c9082168061166457607f821691505b60208210810361168457634e487b7160e01b600052602260045260246000fd5b50919050565b60208082526027908201527f42616467657320617265206e6f6e2d7472616e7366657261626c652028736f756040820152666c626f756e642960c81b606082015260800190565b634e487b7160e01b600052601160045260246000fd5b6000600182016116f9576116f96116d1565b5060010190565b601f8211156105db57806000526020600020601f840160051c810160208510156117275750805b601f840160051c820191505b81811015610c925760008155600101611733565b815167ffffffffffffffff8111156117615761176161148c565b6117758161176f8454611650565b84611700565b6020601f8211600181146117a957600083156117915750848201515b600019600385901b1c1916600184901b178455610c92565b600084815260208120601f198516915b828110156117d957878501518255602094850194600190920191016117b9565b50848210156117f75786840151600019600387901b60f8161c191681555b50505050600190811b01905550565b600080845461181481611650565b60018216801561182b576001811461184057611870565b60ff1983168652811515820286019350611870565b87600052602060002060005b838110156118685781548882015260019091019060200161184c565b505081860193505b5050508351611883818360208801611372565b01949350505050565b6001600160a01b03858116825284166020820152604081018390526080606082018190526000906118bf90830184611396565b9695505050505050565b6000602082840312156118db57600080fd5b815161136b81611338565b7f646174613a6170706c69636174696f6e2f6a736f6e2c7b226e616d65223a224681527f6c617368204c6f616e204d617374657220426164676520230000000000000000602082015260008451611944816038850160208901611372565b701116113232b9b1b934b83a34b7b7111d1160791b6038918401918201528451611975816049840160208901611372565b6038818301019150506a11161137bbb732b9111d1160a91b601182015283516119a581601c840160208801611372565b7f222c2261747472696275746573223a5b7b2274726169745f74797065223a2241601c92909101918201527f6368696576656d656e74222c2276616c7565223a22466972737420466c617368603c8201527f204c6f616e227d2c7b2274726169745f74797065223a224e6574776f726b222c605c8201527f2276616c7565223a224d6f6e616420546573746e6574227d2c7b227472616974607c8201527f5f74797065223a2242616467652054797065222c2276616c7565223a22466c61609c820152717368204c6f616e204d6173746572227d5d7d60701b60bc82015260ce0195945050505050565b8082028115828204841417610453576104536116d1565b80820180821115610453576104536116d1565b634e487b7160e01b600052603260045260246000fd5b600081611ade57611ade6116d1565b50600019019056fe466c617368204c6f616e204d6173746572204261646765202d204177617264656420666f72207375636365737366756c6c7920636f6d706c6574696e6720796f757220666972737420666c617368206c6f616e206f6e204d6f6e616420746573746e6574a26469706673582212204076ddd839243fbdfaa0fe0d9171e611ba04577e98ef0af3fc403028f4f4009a64736f6c634300081b003368747470733a2f2f6170692e666c6173686c6f616e2d706c617967726f756e642e636f6d2f6d657461646174612f","linkReferences":{}},"methodIdentifiers":{"BADGE_DESCRIPTION()":"9b785278","approve(address,uint256)":"095ea7b3","balanceOf(address)":"70a08231","flashLoanProvider()":"639af6d0","getApproved(uint256)":"081812fc","getUserTokenId(address)":"fefd4e4f","hasBadge(address)":"5e50864f","hasEarnedBadge(address)":"28280ac5","isApprovedForAll(address,address)":"e985e9c5","mintBadge(address)":"4a36f6e4","name()":"06fdde03","owner()":"8da5cb5b","ownerOf(uint256)":"6352211e","renounceOwnership()":"715018a6","safeTransferFrom(address,address,uint256)":"42842e0e","safeTransferFrom(address,address,uint256,bytes)":"b88d4fde","setApprovalForAll(address,bool)":"a22cb465","setBaseURI(string)":"55f804b3","setFlashLoanProvider(address)":"aa9cb0a5","supportsInterface(bytes4)":"01ffc9a7","symbol()":"95d89b41","tokenIdToUser(uint256)":"fd764f22","tokenURI(uint256)":"c87b56dd","totalBadgesMinted()":"acdcda6b","transferFrom(address,address,uint256)":"23b872dd","transferOwnership(address)":"f2fde38b","userTokenId(address)":"715ca542"},"id":40}