{"abi":[{"type":"constructor","inputs":[{"name":"name","type":"string","internalType":"string"},{"name":"symbol","type":"string","internalType":"string"},{"name":"decimals_","type":"uint8","internalType":"uint8"},{"name":"initialSupply","type":"uint256","internalType":"uint256"}],"stateMutability":"nonpayable"},{"type":"function","name":"allowance","inputs":[{"name":"owner","type":"address","internalType":"address"},{"name":"spender","type":"address","internalType":"address"}],"outputs":[{"name":"","type":"uint256","internalType":"uint256"}],"stateMutability":"view"},{"type":"function","name":"approve","inputs":[{"name":"spender","type":"address","internalType":"address"},{"name":"value","type":"uint256","internalType":"uint256"}],"outputs":[{"name":"","type":"bool","internalType":"bool"}],"stateMutability":"nonpayable"},{"type":"function","name":"balanceOf","inputs":[{"name":"account","type":"address","internalType":"address"}],"outputs":[{"name":"","type":"uint256","internalType":"uint256"}],"stateMutability":"view"},{"type":"function","name":"burn","inputs":[{"name":"from","type":"address","internalType":"address"},{"name":"amount","type":"uint256","internalType":"uint256"}],"outputs":[],"stateMutability":"nonpayable"},{"type":"function","name":"decimals","inputs":[],"outputs":[{"name":"","type":"uint8","internalType":"uint8"}],"stateMutability":"view"},{"type":"function","name":"faucet","inputs":[],"outputs":[],"stateMutability":"nonpayable"},{"type":"function","name":"mint","inputs":[{"name":"to","type":"address","internalType":"address"},{"name":"amount","type":"uint256","internalType":"uint256"}],"outputs":[],"stateMutability":"nonpayable"},{"type":"function","name":"name","inputs":[],"outputs":[{"name":"","type":"string","internalType":"string"}],"stateMutability":"view"},{"type":"function","name":"owner","inputs":[],"outputs":[{"name":"","type":"address","internalType":"address"}],"stateMutability":"view"},{"type":"function","name":"renounceOwnership","inputs":[],"outputs":[],"stateMutability":"nonpayable"},{"type":"function","name":"symbol","inputs":[],"outputs":[{"name":"","type":"string","internalType":"string"}],"stateMutability":"view"},{"type":"function","name":"totalSupply","inputs":[],"outputs":[{"name":"","type":"uint256","internalType":"uint256"}],"stateMutability":"view"},{"type":"function","name":"transfer","inputs":[{"name":"to","type":"address","internalType":"address"},{"name":"value","type":"uint256","internalType":"uint256"}],"outputs":[{"name":"","type":"bool","internalType":"bool"}],"stateMutability":"nonpayable"},{"type":"function","name":"transferFrom","inputs":[{"name":"from","type":"address","internalType":"address"},{"name":"to","type":"address","internalType":"address"},{"name":"value","type":"uint256","internalType":"uint256"}],"outputs":[{"name":"","type":"bool","internalType":"bool"}],"stateMutability":"nonpayable"},{"type":"function","name":"transferOwnership","inputs":[{"name":"newOwner","type":"address","internalType":"address"}],"outputs":[],"stateMutability":"nonpayable"},{"type":"event","name":"Approval","inputs":[{"name":"owner","type":"address","indexed":true,"internalType":"address"},{"name":"spender","type":"address","indexed":true,"internalType":"address"},{"name":"value","type":"uint256","indexed":false,"internalType":"uint256"}],"anonymous":false},{"type":"event","name":"OwnershipTransferred","inputs":[{"name":"previousOwner","type":"address","indexed":true,"internalType":"address"},{"name":"newOwner","type":"address","indexed":true,"internalType":"address"}],"anonymous":false},{"type":"event","name":"Transfer","inputs":[{"name":"from","type":"address","indexed":true,"internalType":"address"},{"name":"to","type":"address","indexed":true,"internalType":"address"},{"name":"value","type":"uint256","indexed":false,"internalType":"uint256"}],"anonymous":false},{"type":"error","name":"ERC20InsufficientAllowance","inputs":[{"name":"spender","type":"address","internalType":"address"},{"name":"allowance","type":"uint256","internalType":"uint256"},{"name":"needed","type":"uint256","internalType":"uint256"}]},{"type":"error","name":"ERC20InsufficientBalance","inputs":[{"name":"sender","type":"address","internalType":"address"},{"name":"balance","type":"uint256","internalType":"uint256"},{"name":"needed","type":"uint256","internalType":"uint256"}]},{"type":"error","name":"ERC20InvalidApprover","inputs":[{"name":"approver","type":"address","internalType":"address"}]},{"type":"error","name":"ERC20InvalidReceiver","inputs":[{"name":"receiver","type":"address","internalType":"address"}]},{"type":"error","name":"ERC20InvalidSender","inputs":[{"name":"sender","type":"address","internalType":"address"}]},{"type":"error","name":"ERC20InvalidSpender","inputs":[{"name":"spender","type":"address","internalType":"address"}]},{"type":"error","name":"OwnableInvalidOwner","inputs":[{"name":"owner","type":"address","internalType":"address"}]},{"type":"error","name":"OwnableUnauthorizedAccount","inputs":[{"name":"account","type":"address","internalType":"address"}]}],"bytecode":{"object":"0x608060405234801561001057600080fd5b506040516110f63803806110f683398101604081905261002f91610335565b338484600361003e8382610447565b50600461004b8282610447565b5050506001600160a01b03811661007d57604051631e4fbdf760e01b8152600060048201526024015b60405180910390fd5b610086816100c6565b506005805460ff60a01b1916600160a01b60ff8516021790556100bd336100ae84600a610604565b6100b8908461061a565b610118565b50505050610644565b600580546001600160a01b038381166001600160a01b0319831681179093556040519116919082907f8be0079c531659141344cd1fd0a4f28419497f9722a3daafe3b4186f6b6457e090600090a35050565b6001600160a01b0382166101425760405163ec442f0560e01b815260006004820152602401610074565b61014e60008383610152565b5050565b6001600160a01b03831661017d5780600260008282546101729190610631565b909155506101ef9050565b6001600160a01b038316600090815260208190526040902054818110156101d05760405163391434e360e21b81526001600160a01b03851660048201526024810182905260448101839052606401610074565b6001600160a01b03841660009081526020819052604090209082900390555b6001600160a01b03821661020b5760028054829003905561022a565b6001600160a01b03821660009081526020819052604090208054820190555b816001600160a01b0316836001600160a01b03167fddf252ad1be2c89b69c2b068fc378daa952ba7f163c4a11628f55a4df523b3ef8360405161026f91815260200190565b60405180910390a3505050565b634e487b7160e01b600052604160045260246000fd5b600082601f8301126102a357600080fd5b81516001600160401b038111156102bc576102bc61027c565b604051601f8201601f19908116603f011681016001600160401b03811182821017156102ea576102ea61027c565b60405281815283820160200185101561030257600080fd5b60005b8281101561032157602081860181015183830182015201610305565b506000918101602001919091529392505050565b6000806000806080858703121561034b57600080fd5b84516001600160401b0381111561036157600080fd5b61036d87828801610292565b602087015190955090506001600160401b0381111561038b57600080fd5b61039787828801610292565b935050604085015160ff811681146103ae57600080fd5b6060959095015193969295505050565b600181811c908216806103d257607f821691505b6020821081036103f257634e487b7160e01b600052602260045260246000fd5b50919050565b601f82111561044257806000526020600020601f840160051c8101602085101561041f5750805b601f840160051c820191505b8181101561043f576000815560010161042b565b50505b505050565b81516001600160401b038111156104605761046061027c565b6104748161046e84546103be565b846103f8565b6020601f8211600181146104a857600083156104905750848201515b600019600385901b1c1916600184901b17845561043f565b600084815260208120601f198516915b828110156104d857878501518255602094850194600190920191016104b8565b50848210156104f65786840151600019600387901b60f8161c191681555b50505050600190811b01905550565b634e487b7160e01b600052601160045260246000fd5b6001815b60018411156105565780850481111561053a5761053a610505565b600184161561054857908102905b60019390931c92800261051f565b935093915050565b60008261056d575060016105fe565b8161057a575060006105fe565b8160018114610590576002811461059a576105b6565b60019150506105fe565b60ff8411156105ab576105ab610505565b50506001821b6105fe565b5060208310610133831016604e8410600b84101617156105d9575081810a6105fe565b6105e6600019848461051b565b80600019048211156105fa576105fa610505565b0290505b92915050565b600061061360ff84168361055e565b9392505050565b80820281158282048414176105fe576105fe610505565b808201808211156105fe576105fe610505565b610aa3806106536000396000f3fe608060405234801561001057600080fd5b50600436106100f55760003560e01c8063715018a611610097578063a9059cbb11610066578063a9059cbb146101fb578063dd62ed3e1461020e578063de5f72fd14610247578063f2fde38b1461024f57600080fd5b8063715018a6146101bd5780638da5cb5b146101c557806395d89b41146101e05780639dc29fac146101e857600080fd5b806323b872dd116100d357806323b872dd1461014d578063313ce5671461016057806340c10f191461017f57806370a082311461019457600080fd5b806306fdde03146100fa578063095ea7b31461011857806318160ddd1461013b575b600080fd5b610102610262565b60405161010f91906107d7565b60405180910390f35b61012b610126366004610841565b6102f4565b604051901515815260200161010f565b6002545b60405190815260200161010f565b61012b61015b36600461086b565b61030e565b600554600160a01b900460ff1660405160ff909116815260200161010f565b61019261018d366004610841565b610332565b005b61013f6101a23660046108a8565b6001600160a01b031660009081526020819052604090205490565b610192610348565b6005546040516001600160a01b03909116815260200161010f565b61010261035c565b6101926101f6366004610841565b61036b565b61012b610209366004610841565b61037d565b61013f61021c3660046108ca565b6001600160a01b03918216600090815260016020908152604080832093909416825291909152205490565b61019261038b565b61019261025d3660046108a8565b6103ba565b606060038054610271906108fd565b80601f016020809104026020016040519081016040528092919081815260200182805461029d906108fd565b80156102ea5780601f106102bf576101008083540402835291602001916102ea565b820191906000526020600020905b8154815290600101906020018083116102cd57829003601f168201915b5050505050905090565b6000336103028185856103fd565b60019150505b92915050565b60003361031c85828561040f565b61032785858561048e565b506001949350505050565b61033a6104ed565b610344828261051a565b5050565b6103506104ed565b61035a6000610550565b565b606060048054610271906108fd565b6103736104ed565b61034482826105a2565b60003361030281858561048e565b60055461035a9033906103a990600160a01b900460ff16600a610a34565b6103b5906103e8610a43565b61051a565b6103c26104ed565b6001600160a01b0381166103f157604051631e4fbdf760e01b8152600060048201526024015b60405180910390fd5b6103fa81610550565b50565b61040a83838360016105d8565b505050565b6001600160a01b03838116600090815260016020908152604080832093861683529290522054600019811015610488578181101561047957604051637dc7a0d960e11b81526001600160a01b038416600482015260248101829052604481018390526064016103e8565b610488848484840360006105d8565b50505050565b6001600160a01b0383166104b857604051634b637e8f60e11b8152600060048201526024016103e8565b6001600160a01b0382166104e25760405163ec442f0560e01b8152600060048201526024016103e8565b61040a8383836106ad565b6005546001600160a01b0316331461035a5760405163118cdaa760e01b81523360048201526024016103e8565b6001600160a01b0382166105445760405163ec442f0560e01b8152600060048201526024016103e8565b610344600083836106ad565b600580546001600160a01b038381166001600160a01b0319831681179093556040519116919082907f8be0079c531659141344cd1fd0a4f28419497f9722a3daafe3b4186f6b6457e090600090a35050565b6001600160a01b0382166105cc57604051634b637e8f60e11b8152600060048201526024016103e8565b610344826000836106ad565b6001600160a01b0384166106025760405163e602df0560e01b8152600060048201526024016103e8565b6001600160a01b03831661062c57604051634a1406b160e11b8152600060048201526024016103e8565b6001600160a01b038085166000908152600160209081526040808320938716835292905220829055801561048857826001600160a01b0316846001600160a01b03167f8c5be1e5ebec7d5bd14f71427d1e84f3dd0314c0f7b2291e5b200ac8c7c3b9258460405161069f91815260200190565b60405180910390a350505050565b6001600160a01b0383166106d85780600260008282546106cd9190610a5a565b9091555061074a9050565b6001600160a01b0383166000908152602081905260409020548181101561072b5760405163391434e360e21b81526001600160a01b038516600482015260248101829052604481018390526064016103e8565b6001600160a01b03841660009081526020819052604090209082900390555b6001600160a01b03821661076657600280548290039055610785565b6001600160a01b03821660009081526020819052604090208054820190555b816001600160a01b0316836001600160a01b03167fddf252ad1be2c89b69c2b068fc378daa952ba7f163c4a11628f55a4df523b3ef836040516107ca91815260200190565b60405180910390a3505050565b602081526000825180602084015260005b8181101561080557602081860181015160408684010152016107e8565b506000604082850101526040601f19601f83011684010191505092915050565b80356001600160a01b038116811461083c57600080fd5b919050565b6000806040838503121561085457600080fd5b61085d83610825565b946020939093013593505050565b60008060006060848603121561088057600080fd5b61088984610825565b925061089760208501610825565b929592945050506040919091013590565b6000602082840312156108ba57600080fd5b6108c382610825565b9392505050565b600080604083850312156108dd57600080fd5b6108e683610825565b91506108f460208401610825565b90509250929050565b600181811c9082168061091157607f821691505b60208210810361093157634e487b7160e01b600052602260045260246000fd5b50919050565b634e487b7160e01b600052601160045260246000fd5b6001815b60018411156109885780850481111561096c5761096c610937565b600184161561097a57908102905b60019390931c928002610951565b935093915050565b60008261099f57506001610308565b816109ac57506000610308565b81600181146109c257600281146109cc576109e8565b6001915050610308565b60ff8411156109dd576109dd610937565b50506001821b610308565b5060208310610133831016604e8410600b8410161715610a0b575081810a610308565b610a18600019848461094d565b8060001904821115610a2c57610a2c610937565b029392505050565b60006108c360ff841683610990565b808202811582820484141761030857610308610937565b808201808211156103085761030861093756fea2646970667358221220b89cd9c1b12837b3df4f630823ff274abb5e7dc8053a5bc1ddf699e67acca14464736f6c634300081b0033","linkReferences":{}},"methodIdentifiers":{"allowance(address,address)":"dd62ed3e","approve(address,uint256)":"095ea7b3","balanceOf(address)":"70a08231","burn(address,uint256)":"9dc29fac","decimals()":"313ce567","faucet()":"de5f72fd","mint(address,uint256)":"40c10f19","name()":"06fdde03","owner()":"8da5cb5b","renounceOwnership()":"715018a6","symbol()":"95d89b41","totalSupply()":"18160ddd","transfer(address,uint256)":"a9059cbb","transferFrom(address,address,uint256)":"23b872dd","transferOwnership(address)":"f2fde38b"},"id":29}