{"abi":[{"type":"constructor","inputs":[],"stateMutability":"nonpayable"},{"type":"function","name":"MAX_FEE_BPS","inputs":[],"outputs":[{"name":"","type":"uint256","internalType":"uint256"}],"stateMutability":"view"},{"type":"function","name":"addLiquidity","inputs":[{"name":"token","type":"address","internalType":"address"},{"name":"amount","type":"uint256","internalType":"uint256"}],"outputs":[],"stateMutability":"nonpayable"},{"type":"function","name":"calculateFee","inputs":[{"name":"amount","type":"uint256","internalType":"uint256"}],"outputs":[{"name":"","type":"uint256","internalType":"uint256"}],"stateMutability":"view"},{"type":"function","name":"feeBasisPoints","inputs":[],"outputs":[{"name":"","type":"uint256","internalType":"uint256"}],"stateMutability":"view"},{"type":"function","name":"flashLoan","inputs":[{"name":"token","type":"address","internalType":"address"},{"name":"amount","type":"uint256","internalType":"uint256"},{"name":"receiver","type":"address","internalType":"address"},{"name":"data","type":"bytes","internalType":"bytes"}],"outputs":[],"stateMutability":"nonpayable"},{"type":"function","name":"getAvailableLiquidity","inputs":[{"name":"token","type":"address","internalType":"address"}],"outputs":[{"name":"","type":"uint256","internalType":"uint256"}],"stateMutability":"view"},{"type":"function","name":"hasSuccessfullyBorrowed","inputs":[{"name":"","type":"address","internalType":"address"}],"outputs":[{"name":"","type":"bool","internalType":"bool"}],"stateMutability":"view"},{"type":"function","name":"hasUserSuccessfullyBorrowed","inputs":[{"name":"user","type":"address","internalType":"address"}],"outputs":[{"name":"","type":"bool","internalType":"bool"}],"stateMutability":"view"},{"type":"function","name":"owner","inputs":[],"outputs":[{"name":"","type":"address","internalType":"address"}],"stateMutability":"view"},{"type":"function","name":"removeLiquidity","inputs":[{"name":"token","type":"address","internalType":"address"},{"name":"amount","type":"uint256","internalType":"uint256"}],"outputs":[],"stateMutability":"nonpayable"},{"type":"function","name":"renounceOwnership","inputs":[],"outputs":[],"stateMutability":"nonpayable"},{"type":"function","name":"setFee","inputs":[{"name":"newFeeBasisPoints","type":"uint256","internalType":"uint256"}],"outputs":[],"stateMutability":"nonpayable"},{"type":"function","name":"setTokenWhitelist","inputs":[{"name":"token","type":"address","internalType":"address"},{"name":"whitelisted","type":"bool","internalType":"bool"}],"outputs":[],"stateMutability":"nonpayable"},{"type":"function","name":"totalBorrowed","inputs":[{"name":"","type":"address","internalType":"address"}],"outputs":[{"name":"","type":"uint256","internalType":"uint256"}],"stateMutability":"view"},{"type":"function","name":"totalRepaid","inputs":[{"name":"","type":"address","internalType":"address"}],"outputs":[{"name":"","type":"uint256","internalType":"uint256"}],"stateMutability":"view"},{"type":"function","name":"transferOwnership","inputs":[{"name":"newOwner","type":"address","internalType":"address"}],"outputs":[],"stateMutability":"nonpayable"},{"type":"function","name":"whitelistedTokens","inputs":[{"name":"","type":"address","internalType":"address"}],"outputs":[{"name":"","type":"bool","internalType":"bool"}],"stateMutability":"view"},{"type":"event","name":"FeeUpdated","inputs":[{"name":"oldFee","type":"uint256","indexed":false,"internalType":"uint256"},{"name":"newFee","type":"uint256","indexed":false,"internalType":"uint256"}],"anonymous":false},{"type":"event","name":"FlashLoan","inputs":[{"name":"borrower","type":"address","indexed":true,"internalType":"address"},{"name":"token","type":"address","indexed":true,"internalType":"address"},{"name":"amount","type":"uint256","indexed":false,"internalType":"uint256"},{"name":"fee","type":"uint256","indexed":false,"internalType":"uint256"}],"anonymous":false},{"type":"event","name":"FlashLoanSuccess","inputs":[{"name":"user","type":"address","indexed":true,"internalType":"address"},{"name":"token","type":"address","indexed":true,"internalType":"address"},{"name":"amount","type":"uint256","indexed":false,"internalType":"uint256"}],"anonymous":false},{"type":"event","name":"OwnershipTransferred","inputs":[{"name":"previousOwner","type":"address","indexed":true,"internalType":"address"},{"name":"newOwner","type":"address","indexed":true,"internalType":"address"}],"anonymous":false},{"type":"event","name":"TokenWhitelisted","inputs":[{"name":"token","type":"address","indexed":true,"internalType":"address"},{"name":"whitelisted","type":"bool","indexed":false,"internalType":"bool"}],"anonymous":false},{"type":"error","name":"OwnableInvalidOwner","inputs":[{"name":"owner","type":"address","internalType":"address"}]},{"type":"error","name":"OwnableUnauthorizedAccount","inputs":[{"name":"account","type":"address","internalType":"address"}]},{"type":"error","name":"ReentrancyGuardReentrantCall","inputs":[]}],"bytecode":{"object":"0x6080604052601e600255348015601457600080fd5b503380603a57604051631e4fbdf760e01b81526000600482015260240160405180910390fd5b604181604a565b5060018055609a565b600080546001600160a01b038381166001600160a01b0319831681178455604051919092169283917f8be0079c531659141344cd1fd0a4f28419497f9722a3daafe3b4186f6b6457e09190a35050565b610fe7806100a96000396000f3fe608060405234801561001057600080fd5b506004361061010b5760003560e01c8063a201ccf6116100a2578063c9bcc97e11610071578063c9bcc97e14610242578063d55be8c614610255578063daf9c2101461025e578063e2e1ca2b14610281578063f2fde38b146102a157600080fd5b8063a201ccf6146101f0578063adf51de114610203578063b8606eef14610216578063bd36295a1461021f57600080fd5b8063715018a6116100de578063715018a61461019a57806378d876a6146101a25780638da5cb5b146101c257806399a5d747146101dd57600080fd5b80630af0b9e714610110578063266e2bd814610151578063566887001461017257806369fe0e2d14610187575b600080fd5b61013c61011e366004610d4f565b6001600160a01b031660009081526006602052604090205460ff1690565b60405190151581526020015b60405180910390f35b61016461015f366004610d4f565b6102b4565b604051908152602001610148565b610185610180366004610d71565b610325565b005b610185610195366004610d9b565b610426565b6101856104b4565b6101646101b0366004610d4f565b60056020526000908152604090205481565b6000546040516001600160a01b039091168152602001610148565b6101646101eb366004610d9b565b6104c8565b6101856101fe366004610d71565b6104e5565b610185610211366004610db4565b6105e1565b61016460025481565b61013c61022d366004610d4f565b60066020526000908152604090205460ff1681565b610185610250366004610e5f565b610be7565b6101646103e881565b61013c61026c366004610d4f565b60036020526000908152604090205460ff1681565b61016461028f366004610d4f565b60046020526000908152604090205481565b6101856102af366004610d4f565b610c4e565b6040516370a0823160e01b81523060048201526000906001600160a01b038316906370a0823190602401602060405180830381865afa1580156102fb573d6000803e3d6000fd5b505050506040513d601f19601f8201168201806040525081019061031f9190610e96565b92915050565b6001600160a01b03821660009081526003602052604090205460ff1661038a5760405162461bcd60e51b8152602060048201526015602482015274151bdad95b881b9bdd081dda1a5d195b1a5cdd1959605a1b60448201526064015b60405180910390fd5b600081116103aa5760405162461bcd60e51b815260040161038190610eaf565b6040516323b872dd60e01b8152336004820152306024820152604481018290526001600160a01b038316906323b872dd906064016020604051808303816000875af11580156103fd573d6000803e3d6000fd5b505050506040513d601f19601f820116820180604052508101906104219190610ee6565b505050565b61042e610c8c565b6103e881111561046f5760405162461bcd60e51b815260206004820152600c60248201526b08ccaca40e8dede40d0d2ced60a31b6044820152606401610381565b600280549082905560408051828152602081018490527f528d9479e9f9889a87a3c30c7f7ba537e5e59c4c85a37733b16e57c62df61302910160405180910390a15050565b6104bc610c8c565b6104c66000610cb9565b565b6000612710600254836104db9190610f19565b61031f9190610f30565b6104ed610c8c565b6000811161050d5760405162461bcd60e51b815260040161038190610eaf565b816001600160a01b031663a9059cbb61052e6000546001600160a01b031690565b6040516001600160e01b031960e084901b1681526001600160a01b039091166004820152602481018490526044016020604051808303816000875af115801561057b573d6000803e3d6000fd5b505050506040513d601f19601f8201168201806040525081019061059f9190610ee6565b6105dd5760405162461bcd60e51b815260206004820152600f60248201526e151c985b9cd9995c8819985a5b1959608a1b6044820152606401610381565b5050565b6105e9610d09565b6001600160a01b03851660009081526003602052604090205460ff166106495760405162461bcd60e51b8152602060048201526015602482015274151bdad95b881b9bdd081dda1a5d195b1a5cdd1959605a1b6044820152606401610381565b600084116106695760405162461bcd60e51b815260040161038190610eaf565b6001600160a01b0383166106b25760405162461bcd60e51b815260206004820152601060248201526f24b73b30b634b2103932b1b2b4bb32b960811b6044820152606401610381565b6040516370a0823160e01b815230600482015285906000906001600160a01b038316906370a0823190602401602060405180830381865afa1580156106fb573d6000803e3d6000fd5b505050506040513d601f19601f8201168201806040525081019061071f9190610e96565b90508581101561076a5760405162461bcd60e51b8152602060048201526016602482015275496e73756666696369656e74206c697175696469747960501b6044820152606401610381565b60006127106002548861077d9190610f19565b6107879190610f30565b905060006107958289610f52565b6001600160a01b038a16600090815260046020526040812080549293508a929091906107c2908490610f52565b909155505060405163a9059cbb60e01b81526001600160a01b038881166004830152602482018a905285169063a9059cbb906044016020604051808303816000875af1158015610816573d6000803e3d6000fd5b505050506040513d601f19601f8201168201806040525081019061083a9190610ee6565b6108785760405162461bcd60e51b815260206004820152600f60248201526e151c985b9cd9995c8819985a5b1959608a1b6044820152606401610381565b604051639caee11360e01b81526001600160a01b03881690639caee113906108ac908c908c9087908c908c90600401610f65565b6020604051808303816000875af11580156108cb573d6000803e3d6000fd5b505050506040513d601f19601f820116820180604052508101906108ef9190610ee6565b61093b5760405162461bcd60e51b815260206004820152601a60248201527f466c617368206c6f616e2063616c6c6261636b206661696c65640000000000006044820152606401610381565b6040516323b872dd60e01b81526001600160a01b038881166004830152306024830152604482018390528516906323b872dd906064016020604051808303816000875af1158015610990573d6000803e3d6000fd5b505050506040513d601f19601f820116820180604052508101906109b49190610ee6565b610a005760405162461bcd60e51b815260206004820152601b60248201527f466c617368206c6f616e2072657061796d656e74206661696c656400000000006044820152606401610381565b6040516370a0823160e01b81523060048201526000906001600160a01b038616906370a0823190602401602060405180830381865afa158015610a47573d6000803e3d6000fd5b505050506040513d601f19601f82011682018060405250810190610a6b9190610e96565b9050610a778385610f52565b811015610ac65760405162461bcd60e51b815260206004820152601f60248201527f466c617368206c6f616e206e6f742072657061696420636f72726563746c79006044820152606401610381565b6001600160a01b038a1660009081526005602052604081208054849290610aee908490610f52565b90915550503260008181526006602052604090205460ff16610b2e576001600160a01b0381166000908152600660205260409020805460ff191660011790555b8a6001600160a01b0316896001600160a01b03167f0d7d75e01ab95780d3cd1c8ec0dd6c2ce19e3a20427eec8bf53283b6fb8e95f08c87604051610b7c929190918252602082015260400190565b60405180910390a38a6001600160a01b0316816001600160a01b03167f8309ea9e955dd2c0f0e4b0b84a5ce1d8c0bf3979ed4b438bd231e4e30203b8b78c604051610bc991815260200190565b60405180910390a3505050505050610be060018055565b5050505050565b610bef610c8c565b6001600160a01b038216600081815260036020908152604091829020805460ff191685151590811790915591519182527fef81a9943b96c8df4ef243401c9bf5159146166211356898b52d382086168d92910160405180910390a25050565b610c56610c8c565b6001600160a01b038116610c8057604051631e4fbdf760e01b815260006004820152602401610381565b610c8981610cb9565b50565b6000546001600160a01b031633146104c65760405163118cdaa760e01b8152336004820152602401610381565b600080546001600160a01b038381166001600160a01b0319831681178455604051919092169283917f8be0079c531659141344cd1fd0a4f28419497f9722a3daafe3b4186f6b6457e09190a35050565b600260015403610d2c57604051633ee5aeb560e01b815260040160405180910390fd5b6002600155565b80356001600160a01b0381168114610d4a57600080fd5b919050565b600060208284031215610d6157600080fd5b610d6a82610d33565b9392505050565b60008060408385031215610d8457600080fd5b610d8d83610d33565b946020939093013593505050565b600060208284031215610dad57600080fd5b5035919050565b600080600080600060808688031215610dcc57600080fd5b610dd586610d33565b945060208601359350610dea60408701610d33565b9250606086013567ffffffffffffffff811115610e0657600080fd5b8601601f81018813610e1757600080fd5b803567ffffffffffffffff811115610e2e57600080fd5b886020828401011115610e4057600080fd5b959894975092955050506020019190565b8015158114610c8957600080fd5b60008060408385031215610e7257600080fd5b610e7b83610d33565b91506020830135610e8b81610e51565b809150509250929050565b600060208284031215610ea857600080fd5b5051919050565b6020808252601d908201527f416d6f756e74206d7573742062652067726561746572207468616e2030000000604082015260600190565b600060208284031215610ef857600080fd5b8151610d6a81610e51565b634e487b7160e01b600052601160045260246000fd5b808202811582820484141761031f5761031f610f03565b600082610f4d57634e487b7160e01b600052601260045260246000fd5b500490565b8082018082111561031f5761031f610f03565b60018060a01b038616815284602082015283604082015260806060820152816080820152818360a0830137600081830160a090810191909152601f909201601f1916010194935050505056fea2646970667358221220f67fb9d2478b1752d84f5aa0056e63661544e3af0b29f2282fb396c39a4378c464736f6c634300081b0033","linkReferences":{}},"methodIdentifiers":{"MAX_FEE_BPS()":"d55be8c6","addLiquidity(address,uint256)":"56688700","calculateFee(uint256)":"99a5d747","feeBasisPoints()":"b8606eef","flashLoan(address,uint256,address,bytes)":"adf51de1","getAvailableLiquidity(address)":"266e2bd8","hasSuccessfullyBorrowed(address)":"bd36295a","hasUserSuccessfullyBorrowed(address)":"0af0b9e7","owner()":"8da5cb5b","removeLiquidity(address,uint256)":"a201ccf6","renounceOwnership()":"715018a6","setFee(uint256)":"69fe0e2d","setTokenWhitelist(address,bool)":"c9bcc97e","totalBorrowed(address)":"e2e1ca2b","totalRepaid(address)":"78d876a6","transferOwnership(address)":"f2fde38b","whitelistedTokens(address)":"daf9c210"},"id":42}