{"abi":[{"type":"constructor","inputs":[],"stateMutability":"nonpayable"},{"type":"function","name":"addOperatingFunds","inputs":[{"name":"token","type":"address","internalType":"address"},{"name":"amount","type":"uint256","internalType":"uint256"}],"outputs":[],"stateMutability":"nonpayable"},{"type":"function","name":"executeFlashLoan","inputs":[{"name":"provider","type":"address","internalType":"address"},{"name":"token","type":"address","internalType":"address"},{"name":"amount","type":"uint256","internalType":"uint256"},{"name":"data","type":"bytes","internalType":"bytes"}],"outputs":[],"stateMutability":"nonpayable"},{"type":"function","name":"getTokenBalance","inputs":[{"name":"token","type":"address","internalType":"address"}],"outputs":[{"name":"","type":"uint256","internalType":"uint256"}],"stateMutability":"view"},{"type":"function","name":"getTotalProfit","inputs":[{"name":"token","type":"address","internalType":"address"}],"outputs":[{"name":"","type":"uint256","internalType":"uint256"}],"stateMutability":"view"},{"type":"function","name":"mockProfitBasisPoints","inputs":[],"outputs":[{"name":"","type":"uint256","internalType":"uint256"}],"stateMutability":"view"},{"type":"function","name":"onFlashLoan","inputs":[{"name":"token","type":"address","internalType":"address"},{"name":"amount","type":"uint256","internalType":"uint256"},{"name":"fee","type":"uint256","internalType":"uint256"},{"name":"","type":"bytes","internalType":"bytes"}],"outputs":[{"name":"success","type":"bool","internalType":"bool"}],"stateMutability":"nonpayable"},{"type":"function","name":"owner","inputs":[],"outputs":[{"name":"","type":"address","internalType":"address"}],"stateMutability":"view"},{"type":"function","name":"renounceOwnership","inputs":[],"outputs":[],"stateMutability":"nonpayable"},{"type":"function","name":"setMockProfitRate","inputs":[{"name":"newProfitBasisPoints","type":"uint256","internalType":"uint256"}],"outputs":[],"stateMutability":"nonpayable"},{"type":"function","name":"totalFlashLoansReceived","inputs":[{"name":"","type":"address","internalType":"address"}],"outputs":[{"name":"","type":"uint256","internalType":"uint256"}],"stateMutability":"view"},{"type":"function","name":"totalProfitGenerated","inputs":[{"name":"","type":"address","internalType":"address"}],"outputs":[{"name":"","type":"uint256","internalType":"uint256"}],"stateMutability":"view"},{"type":"function","name":"transferOwnership","inputs":[{"name":"newOwner","type":"address","internalType":"address"}],"outputs":[],"stateMutability":"nonpayable"},{"type":"function","name":"withdrawToken","inputs":[{"name":"token","type":"address","internalType":"address"},{"name":"amount","type":"uint256","internalType":"uint256"}],"outputs":[],"stateMutability":"nonpayable"},{"type":"event","name":"FlashLoanCompleted","inputs":[{"name":"success","type":"bool","indexed":false,"internalType":"bool"}],"anonymous":false},{"type":"event","name":"FlashLoanReceived","inputs":[{"name":"token","type":"address","indexed":false,"internalType":"address"},{"name":"amount","type":"uint256","indexed":false,"internalType":"uint256"},{"name":"fee","type":"uint256","indexed":false,"internalType":"uint256"}],"anonymous":false},{"type":"event","name":"MockProfitGenerated","inputs":[{"name":"profit","type":"uint256","indexed":false,"internalType":"uint256"}],"anonymous":false},{"type":"event","name":"OwnershipTransferred","inputs":[{"name":"previousOwner","type":"address","indexed":true,"internalType":"address"},{"name":"newOwner","type":"address","indexed":true,"internalType":"address"}],"anonymous":false},{"type":"error","name":"OwnableInvalidOwner","inputs":[{"name":"owner","type":"address","internalType":"address"}]},{"type":"error","name":"OwnableUnauthorizedAccount","inputs":[{"name":"account","type":"address","internalType":"address"}]}],"bytecode":{"object":"0x60806040526032600355348015601457600080fd5b503380603a57604051631e4fbdf760e01b81526000600482015260240160405180910390fd5b6041816046565b506096565b600080546001600160a01b038381166001600160a01b0319831681178455604051919092169283917f8be0079c531659141344cd1fd0a4f28419497f9722a3daafe3b4186f6b6457e09190a35050565b610b8c806100a56000396000f3fe608060405234801561001057600080fd5b50600436106100cf5760003560e01c8063957f7a2c1161008c5780639efcf240116100665780639efcf240146101ba578063a62987c6146101cd578063e0847e5c146101ed578063f2fde38b1461020057600080fd5b8063957f7a2c1461017b5780639caee113146101845780639e281a98146101a757600080fd5b80633417fd99146100d45780633aecd0e3146100e95780635399287f1461010f578063715018a61461012f5780638233fbcb146101375780638da5cb5b14610160575b600080fd5b6100e76100e23660046108d1565b610213565b005b6100fc6100f73660046108fb565b6102d2565b6040519081526020015b60405180910390f35b6100fc61011d3660046108fb565b60026020526000908152604090205481565b6100e7610343565b6100fc6101453660046108fb565b6001600160a01b031660009081526002602052604090205490565b6000546040516001600160a01b039091168152602001610106565b6100fc60035481565b610197610192366004610966565b610357565b6040519015158152602001610106565b6100e76101b53660046108d1565b61062b565b6100e76101c83660046109ce565b610687565b6100fc6101db3660046108fb565b60016020526000908152604090205481565b6100e76101fb3660046109e7565b6106dd565b6100e761020e3660046108fb565b6107d2565b6040516323b872dd60e01b8152336004820152306024820152604481018290526001600160a01b038316906323b872dd906064015b6020604051808303816000875af1158015610267573d6000803e3d6000fd5b505050506040513d601f19601f8201168201806040525081019061028b9190610a39565b6102ce5760405162461bcd60e51b815260206004820152600f60248201526e151c985b9cd9995c8819985a5b1959608a1b60448201526064015b60405180910390fd5b5050565b6040516370a0823160e01b81523060048201526000906001600160a01b038316906370a0823190602401602060405180830381865afa158015610319573d6000803e3d6000fd5b505050506040513d601f19601f8201168201806040525081019061033d9190610a5b565b92915050565b61034b610810565b610355600061083d565b565b604080516001600160a01b0387168152602081018690529081018490526000907f1343998c8d6022eb07eb12064b021c43c49447832d6f53815b05b4b8f43a9ced9060600160405180910390a16001600160a01b038616600090815260016020526040812080548792906103cc908490610a8a565b90915550600090506103de878761088d565b9050801561046a576000612710600354886103f99190610a9d565b6104039190610ab4565b6001600160a01b038916600090815260026020526040812080549293508392909190610430908490610a8a565b90915550506040518181527fd7e8ef7868ea0f36246ee9090c7116a5b3ccf76ba5fb1a1935751298e79d623a9060200160405180910390a1505b60006104768688610a8a565b6040516370a0823160e01b815230600482015290915088906000906001600160a01b038316906370a0823190602401602060405180830381865afa1580156104c2573d6000803e3d6000fd5b505050506040513d601f19601f820116820180604052508101906104e69190610a5b565b9050828110156105385760405162461bcd60e51b815260206004820152601d60248201527f496e73756666696369656e742062616c616e636520746f20726570617900000060448201526064016102c5565b60405163095ea7b360e01b8152336004820152602481018490526001600160a01b0383169063095ea7b3906044016020604051808303816000875af1158015610585573d6000803e3d6000fd5b505050506040513d601f19601f820116820180604052508101906105a99190610a39565b6105e75760405162461bcd60e51b815260206004820152600f60248201526e105c1c1c9bdd985b0819985a5b1959608a1b60448201526064016102c5565b604051600181527fb02100ce618f6af814e356e32df70eb0bfafb7ede7cb1a1b00557d1578a13a249060200160405180910390a15060019998505050505050505050565b610633610810565b816001600160a01b031663a9059cbb6106546000546001600160a01b031690565b6040516001600160e01b031960e084901b1681526001600160a01b03909116600482015260248101849052604401610248565b61068f610810565b6103e88111156106d85760405162461bcd60e51b81526020600482015260146024820152730a0e4deccd2e840e4c2e8ca40e8dede40d0d2ced60631b60448201526064016102c5565b600355565b6000856001600160a01b03168585308686604051602401610702959493929190610ad6565b60408051601f198184030181529181526020820180516001600160e01b031663adf51de160e01b179052516107379190610b27565b6000604051808303816000865af19150503d8060008114610774576040519150601f19603f3d011682016040523d82523d6000602084013e610779565b606091505b50509050806107ca5760405162461bcd60e51b815260206004820152601b60248201527f466c617368206c6f616e20657865637574696f6e206661696c6564000000000060448201526064016102c5565b505050505050565b6107da610810565b6001600160a01b03811661080457604051631e4fbdf760e01b8152600060048201526024016102c5565b61080d8161083d565b50565b6000546001600160a01b031633146103555760405163118cdaa760e01b81523360048201526024016102c5565b600080546001600160a01b038381166001600160a01b0319831681178455604051919092169283917f8be0079c531659141344cd1fd0a4f28419497f9722a3daafe3b4186f6b6457e09190a35050565b600080612710600354846108a19190610a9d565b6108ab9190610ab4565b1515949350505050565b80356001600160a01b03811681146108cc57600080fd5b919050565b600080604083850312156108e457600080fd5b6108ed836108b5565b946020939093013593505050565b60006020828403121561090d57600080fd5b610916826108b5565b9392505050565b60008083601f84011261092f57600080fd5b50813567ffffffffffffffff81111561094757600080fd5b60208301915083602082850101111561095f57600080fd5b9250929050565b60008060008060006080868803121561097e57600080fd5b610987866108b5565b94506020860135935060408601359250606086013567ffffffffffffffff8111156109b157600080fd5b6109bd8882890161091d565b969995985093965092949392505050565b6000602082840312156109e057600080fd5b5035919050565b6000806000806000608086880312156109ff57600080fd5b610a08866108b5565b9450610a16602087016108b5565b935060408601359250606086013567ffffffffffffffff8111156109b157600080fd5b600060208284031215610a4b57600080fd5b8151801515811461091657600080fd5b600060208284031215610a6d57600080fd5b5051919050565b634e487b7160e01b600052601160045260246000fd5b8082018082111561033d5761033d610a74565b808202811582820484141761033d5761033d610a74565b600082610ad157634e487b7160e01b600052601260045260246000fd5b500490565b6001600160a01b03868116825260208201869052841660408201526080606082018190528101829052818360a0830137600081830160a090810191909152601f909201601f19160101949350505050565b6000825160005b81811015610b485760208186018101518583015201610b2e565b50600092019182525091905056fea264697066735822122078a185ce5b14884e48820b9acbf61207b80afd66aeb5c750c9c662d25447a0c664736f6c634300081b0033","linkReferences":{}},"methodIdentifiers":{"addOperatingFunds(address,uint256)":"3417fd99","executeFlashLoan(address,address,uint256,bytes)":"e0847e5c","getTokenBalance(address)":"3aecd0e3","getTotalProfit(address)":"8233fbcb","mockProfitBasisPoints()":"957f7a2c","onFlashLoan(address,uint256,uint256,bytes)":"9caee113","owner()":"8da5cb5b","renounceOwnership()":"715018a6","setMockProfitRate(uint256)":"9efcf240","totalFlashLoansReceived(address)":"a62987c6","totalProfitGenerated(address)":"5399287f","transferOwnership(address)":"f2fde38b","withdrawToken(address,uint256)":"9e281a98"},"id":41}